{
  "transactions": [
    {
      "hash": "0x9ad2717f2037de0b1a5d1978c1659d4f231476997778aff41a4bac020651293b",
      "transactionType": "CALL",
      "contractName": null,
      "contractAddress": "0x9c4a48dd70a3219877a252e9a0d45fc1db808a1d",
      "function": "mintFlag(address,bytes)",
      "arguments": [
        "0xFABB0ac9d68B0B445fB7357272Ff202C5651694a",
        "0x56257285b953a1f6ad84262f4ee7e23eb1776a09ef23a28e55159285095a1e5a43a9260605b0759d49883f2c9f91c9f0895bd996daccdb6f5f7994bbd72ce0bd1b"
      ],
      "transaction": {
        "from": "0x5d09525b883020c65a2b5cd017ffbe51b6b6c58f",
        "to": "0x9c4a48dd70a3219877a252e9a0d45fc1db808a1d",
        "gas": "0x29c34",
        "value": "0x0",
        "input": "0xfb220702000000000000000000000000fabb0ac9d68b0b445fb7357272ff202c5651694a0000000000000000000000000000000000000000000000000000000000000040000000000000000000000000000000000000000000000000000000000000004156257285b953a1f6ad84262f4ee7e23eb1776a09ef23a28e55159285095a1e5a43a9260605b0759d49883f2c9f91c9f0895bd996daccdb6f5f7994bbd72ce0bd1b00000000000000000000000000000000000000000000000000000000000000",
        "nonce": "0xa",
        "chainId": "0xa"
      },
      "additionalContracts": [],
      "isFixedGasLimit": false
    }
  ],
  "receipts": [
    {
      "status": "0x1",
      "cumulativeGasUsed": "0x58dbc3",
      "logs": [
        {
          "address": "0xc1ebd7a78fe7c075035c516b916a7fb3f33c26ce",
          "topics": [
            "0xddf252ad1be2c89b69c2b068fc378daa952ba7f163c4a11628f55a4df523b3ef",
            "0x0000000000000000000000000000000000000000000000000000000000000000",
            "0x0000000000000000000000005d09525b883020c65a2b5cd017ffbe51b6b6c58f",
            "0x0000000000000000000000000000000000000000000000000000000000000092"
          ],
          "data": "0x",
          "blockHash": "0xce7e7b632757c5c1cdaa09e084559d530eec8d315af95191a87e74d956adeaaa",
          "blockNumber": "0x7e71b7e",
          "transactionHash": "0x9ad2717f2037de0b1a5d1978c1659d4f231476997778aff41a4bac020651293b",
          "transactionIndex": "0xa",
          "logIndex": "0x59",
          "removed": false
        },
        {
          "address": "0xc1ebd7a78fe7c075035c516b916a7fb3f33c26ce",
          "topics": [
            "0xef633ead5fa8a224bb818380531535925c31239123ac0a6f54c9135616f05475",
            "0x0000000000000000000000005d09525b883020c65a2b5cd017ffbe51b6b6c58f",
            "0x0000000000000000000000000000000000000000000000000000000000000092",
            "0x0000000000000000000000000000000000000000000000000000000000000004"
          ],
          "data": "0x",
          "blockHash": "0xce7e7b632757c5c1cdaa09e084559d530eec8d315af95191a87e74d956adeaaa",
          "blockNumber": "0x7e71b7e",
          "transactionHash": "0x9ad2717f2037de0b1a5d1978c1659d4f231476997778aff41a4bac020651293b",
          "transactionIndex": "0xa",
          "logIndex": "0x5a",
          "removed": false
        }
      ],
      "logsBloom": "0x00000000000000000000000000000000000000000000000000000000000000000000000000000001000000000000000000000000000000200000000000000000000000000008000000000008000000000000000000000000000000000000000008000000020000000000000001000800000000000000000000000010002000000000000000000000000000000100000000000000000000000000000000000000000000000000000000000000000000000000000000000000002000000000000000000202000000000000000000000000000000008000000010000000000020000000000000000000000000000000000000040000000001020000010000000000",
      "type": "0x0",
      "transactionHash": "0x9ad2717f2037de0b1a5d1978c1659d4f231476997778aff41a4bac020651293b",
      "transactionIndex": "0xa",
      "blockHash": "0xce7e7b632757c5c1cdaa09e084559d530eec8d315af95191a87e74d956adeaaa",
      "blockNumber": "0x7e71b7e",
      "gasUsed": "0x1e3c5",
      "effectiveGasPrice": "0x1327f2",
      "from": "0x5d09525b883020c65a2b5cd017ffbe51b6b6c58f",
      "to": "0x9c4a48dd70a3219877a252e9a0d45fc1db808a1d",
      "contractAddress": null,
      "l1BaseFeeScalar": "0x146b",
      "l1BlobBaseFee": "0x2d94577a",
      "l1BlobBaseFeeScalar": "0xf79c5",
      "l1Fee": "0x1cf8e2e3ed",
      "l1GasPrice": "0x34c30a05",
      "l1GasUsed": "0x927"
    }
  ],
  "libraries": [],
  "pending": [],
  "returns": {},
  "timestamp": 1740771510,
  "chain": 10,
  "commit": "19dcead"
}